{
  "contractName": "Alignment",
  "abi": [
    {
      "inputs": [
        {
          "name": "name",
          "type": "bytes"
        },
        {
          "name": "url",
          "type": "bytes"
        },
        {
          "name": "framework",
          "type": "bytes"
        },
        {
          "name": "code",
          "type": "bytes"
        }
      ],
      "payable": false,
      "stateMutability": "nonpayable",
      "type": "constructor"
    },
    {
      "constant": true,
      "inputs": [],
      "name": "getTargetName",
      "outputs": [
        {
          "name": "",
          "type": "bytes"
        }
      ],
      "payable": false,
      "stateMutability": "view",
      "type": "function"
    },
    {
      "constant": true,
      "inputs": [],
      "name": "getTargetUrl",
      "outputs": [
        {
          "name": "",
          "type": "bytes"
        }
      ],
      "payable": false,
      "stateMutability": "view",
      "type": "function"
    },
    {
      "constant": true,
      "inputs": [],
      "name": "getTargetFramework",
      "outputs": [
        {
          "name": "",
          "type": "bytes"
        }
      ],
      "payable": false,
      "stateMutability": "view",
      "type": "function"
    },
    {
      "constant": true,
      "inputs": [],
      "name": "getTargetCode",
      "outputs": [
        {
          "name": "",
          "type": "bytes"
        }
      ],
      "payable": false,
      "stateMutability": "view",
      "type": "function"
    }
  ],
  "bytecode": "0x6060604052341561000f57600080fd5b6040516106de3803806106de83398101604052808051820191906020018051820191906020018051820191906020018051820191905050836000908051906020019061005c9291906100ab565b5082600190805190602001906100739291906100ab565b50816002908051906020019061008a9291906100ab565b5080600390805190602001906100a19291906100ab565b5050505050610150565b828054600181600116156101000203166002900490600052602060002090601f016020900481019282601f106100ec57805160ff191683800117855561011a565b8280016001018555821561011a579182015b828111156101195782518255916020019190600101906100fe565b5b509050610127919061012b565b5090565b61014d91905b80821115610149576000816000905550600101610131565b5090565b90565b61057f8061015f6000396000f300606060405260043610610062576000357c0100000000000000000000000000000000000000000000000000000000900463ffffffff168063104182bf14610067578063433f95d6146100f5578063a8a84b6f14610183578063cd52d28414610211575b600080fd5b341561007257600080fd5b61007a61029f565b6040518080602001828103825283818151815260200191508051906020019080838360005b838110156100ba57808201518184015260208101905061009f565b50505050905090810190601f1680156100e75780820380516001836020036101000a031916815260200191505b509250505060405180910390f35b341561010057600080fd5b610108610347565b6040518080602001828103825283818151815260200191508051906020019080838360005b8381101561014857808201518184015260208101905061012d565b50505050905090810190601f1680156101755780820380516001836020036101000a031916815260200191505b509250505060405180910390f35b341561018e57600080fd5b6101966103ef565b6040518080602001828103825283818151815260200191508051906020019080838360005b838110156101d65780820151818401526020810190506101bb565b50505050905090810190601f1680156102035780820380516001836020036101000a031916815260200191505b509250505060405180910390f35b341561021c57600080fd5b610224610497565b6040518080602001828103825283818151815260200191508051906020019080838360005b83811015610264578082015181840152602081019050610249565b50505050905090810190601f1680156102915780820380516001836020036101000a031916815260200191505b509250505060405180910390f35b6102a761053f565b60018054600181600116156101000203166002900480601f01602080910402602001604051908101604052809291908181526020018280546001816001161561010002031660029004801561033d5780601f106103125761010080835404028352916020019161033d565b820191906000526020600020905b81548152906001019060200180831161032057829003601f168201915b5050505050905090565b61034f61053f565b60008054600181600116156101000203166002900480601f0160208091040260200160405190810160405280929190818152602001828054600181600116156101000203166002900480156103e55780601f106103ba576101008083540402835291602001916103e5565b820191906000526020600020905b8154815290600101906020018083116103c857829003601f168201915b5050505050905090565b6103f761053f565b60038054600181600116156101000203166002900480601f01602080910402602001604051908101604052809291908181526020018280546001816001161561010002031660029004801561048d5780601f106104625761010080835404028352916020019161048d565b820191906000526020600020905b81548152906001019060200180831161047057829003601f168201915b5050505050905090565b61049f61053f565b60028054600181600116156101000203166002900480601f0160208091040260200160405190810160405280929190818152602001828054600181600116156101000203166002900480156105355780601f1061050a57610100808354040283529160200191610535565b820191906000526020600020905b81548152906001019060200180831161051857829003601f168201915b5050505050905090565b6020604051908101604052806000815250905600a165627a7a72305820a6433c265952fdc839f97cb59dd151eddcc742ca7c88ae6191033faeaa17b4420029",
  "source": "pragma solidity ^0.4.18;\n\ncontract Alignment {\n    bytes private targetName;\n    bytes private targetUrl;\n    bytes private targetFramework;\n    bytes private targetCode;\n\n    function Alignment(bytes name, bytes url, bytes framework, bytes code) public {\n        targetName = name;\n        targetUrl = url;\n        targetFramework = framework;\n        targetCode = code;\n    }\n\n    function getTargetName() public view returns (bytes) {\n        return targetName;\n    }\n\n    function getTargetUrl() public view returns (bytes) {\n        return targetUrl;\n    }\n\n    function getTargetFramework() public view returns (bytes) {\n        return targetFramework;\n    }\n\n    function getTargetCode() public view returns (bytes) {\n        return targetCode;\n    }\n}",
  "sourcePath": "/home/dennis/blockchain/hackathon/contracts/Alignment.sol",
  "compiler": {
    "name": "solc",
    "version": "0.4.19+commit.c4cbbb05.Emscripten.clang"
  },
  "schemaVersion": "1.0.1",
  "updatedAt": "2018-04-06T12:46:32.286Z"
}