{
  "contractName": "BadgeClaimer",
  "abi": [
    {
      "constant": true,
      "inputs": [],
      "name": "getContext",
      "outputs": [
        {
          "name": "",
          "type": "bytes32"
        }
      ],
      "payable": false,
      "stateMutability": "view",
      "type": "function"
    },
    {
      "constant": true,
      "inputs": [],
      "name": "getName",
      "outputs": [
        {
          "name": "",
          "type": "bytes"
        }
      ],
      "payable": false,
      "stateMutability": "view",
      "type": "function"
    },
    {
      "constant": true,
      "inputs": [],
      "name": "getId",
      "outputs": [
        {
          "name": "",
          "type": "bytes"
        }
      ],
      "payable": false,
      "stateMutability": "view",
      "type": "function"
    },
    {
      "constant": true,
      "inputs": [],
      "name": "getOwner",
      "outputs": [
        {
          "name": "",
          "type": "address"
        }
      ],
      "payable": false,
      "stateMutability": "view",
      "type": "function"
    },
    {
      "constant": true,
      "inputs": [],
      "name": "getTypeOB",
      "outputs": [
        {
          "name": "",
          "type": "bytes32"
        }
      ],
      "payable": false,
      "stateMutability": "view",
      "type": "function"
    },
    {
      "inputs": [
        {
          "name": "id",
          "type": "bytes"
        },
        {
          "name": "typeOB",
          "type": "bytes32"
        },
        {
          "name": "name",
          "type": "bytes"
        }
      ],
      "payable": false,
      "stateMutability": "nonpayable",
      "type": "constructor"
    }
  ],
  "bytecode": "0x6060604052341561000f57600080fd5b6040516105b53803806105b583398101604052808051820191906020018051906020019091908051820191905050828282336000806101000a81548173ffffffffffffffffffffffffffffffffffffffff021916908373ffffffffffffffffffffffffffffffffffffffff16021790555082600190805190602001906100969291906100ef565b5081600281600019169055507f68747470733a2f2f773369642e6f72672f6f70656e6261646765732f763200006003816000191690555080600490805190602001906100e39291906100ef565b50505050505050610194565b828054600181600116156101000203166002900490600052602060002090601f016020900481019282601f1061013057805160ff191683800117855561015e565b8280016001018555821561015e579182015b8281111561015d578251825591602001919060010190610142565b5b50905061016b919061016f565b5090565b61019191905b8082111561018d576000816000905550600101610175565b5090565b90565b610412806101a36000396000f30060606040526004361061006d576000357c0100000000000000000000000000000000000000000000000000000000900463ffffffff168063127f0f071461007257806317d7de7c146100a35780635d1ca63114610131578063893d20e8146101bf578063fe04fd3d14610214575b600080fd5b341561007d57600080fd5b610085610245565b60405180826000191660001916815260200191505060405180910390f35b34156100ae57600080fd5b6100b661024f565b6040518080602001828103825283818151815260200191508051906020019080838360005b838110156100f65780820151818401526020810190506100db565b50505050905090810190601f1680156101235780820380516001836020036101000a031916815260200191505b509250505060405180910390f35b341561013c57600080fd5b6101446102f7565b6040518080602001828103825283818151815260200191508051906020019080838360005b83811015610184578082015181840152602081019050610169565b50505050905090810190601f1680156101b15780820380516001836020036101000a031916815260200191505b509250505060405180910390f35b34156101ca57600080fd5b6101d261039f565b604051808273ffffffffffffffffffffffffffffffffffffffff1673ffffffffffffffffffffffffffffffffffffffff16815260200191505060405180910390f35b341561021f57600080fd5b6102276103c8565b60405180826000191660001916815260200191505060405180910390f35b6000600354905090565b6102576103d2565b60048054600181600116156101000203166002900480601f0160208091040260200160405190810160405280929190818152602001828054600181600116156101000203166002900480156102ed5780601f106102c2576101008083540402835291602001916102ed565b820191906000526020600020905b8154815290600101906020018083116102d057829003601f168201915b5050505050905090565b6102ff6103d2565b60018054600181600116156101000203166002900480601f0160208091040260200160405190810160405280929190818152602001828054600181600116156101000203166002900480156103955780601f1061036a57610100808354040283529160200191610395565b820191906000526020600020905b81548152906001019060200180831161037857829003601f168201915b5050505050905090565b60008060009054906101000a900473ffffffffffffffffffffffffffffffffffffffff16905090565b6000600254905090565b6020604051908101604052806000815250905600a165627a7a7230582087295d3509c6ad1a51b6bd3427f45d50210bd45f2fd672ac4a6259a66fd882070029",
  "source": "pragma solidity ^0.4.18;\n\nimport \"./Profile.sol\";\n\ncontract BadgeClaimer is Profile {\n\n    function BadgeClaimer(bytes id, bytes32 typeOB, bytes name) Profile(id, typeOB, name) public {\n\n    }\n}",
  "sourcePath": "/home/dennis/blockchain/hackathon/contracts/BadgeClaimer.sol",
  "compiler": {
    "name": "solc",
    "version": "0.4.19+commit.c4cbbb05.Emscripten.clang"
  },
  "schemaVersion": "1.0.1",
  "updatedAt": "2018-04-06T12:46:32.287Z"
}