{
  "contractName": "Badge",
  "abi": [
    {
      "constant": true,
      "inputs": [],
      "name": "name",
      "outputs": [
        {
          "name": "",
          "type": "bytes"
        }
      ],
      "payable": false,
      "stateMutability": "view",
      "type": "function"
    },
    {
      "constant": true,
      "inputs": [],
      "name": "description",
      "outputs": [
        {
          "name": "",
          "type": "bytes"
        }
      ],
      "payable": false,
      "stateMutability": "view",
      "type": "function"
    },
    {
      "constant": true,
      "inputs": [],
      "name": "ipfsHash",
      "outputs": [
        {
          "name": "",
          "type": "bytes"
        }
      ],
      "payable": false,
      "stateMutability": "view",
      "type": "function"
    },
    {
      "inputs": [
        {
          "name": "badgeName",
          "type": "bytes"
        },
        {
          "name": "badgeDescription",
          "type": "bytes"
        },
        {
          "name": "ipfsIdentifier",
          "type": "bytes"
        }
      ],
      "payable": false,
      "stateMutability": "nonpayable",
      "type": "constructor"
    }
  ],
  "bytecode": "0x6060604052341561000f57600080fd5b60405161054a38038061054a83398101604052808051820191906020018051820191906020018051820191905050826000908051906020019061005392919061008a565b50816001908051906020019061006a92919061008a565b50806002908051906020019061008192919061008a565b5050505061012f565b828054600181600116156101000203166002900490600052602060002090601f016020900481019282601f106100cb57805160ff19168380011785556100f9565b828001600101855582156100f9579182015b828111156100f85782518255916020019190600101906100dd565b5b509050610106919061010a565b5090565b61012c91905b80821115610128576000816000905550600101610110565b5090565b90565b61040c8061013e6000396000f300606060405260043610610057576000357c0100000000000000000000000000000000000000000000000000000000900463ffffffff16806306fdde031461005c5780637284e416146100ea578063c623674f14610178575b600080fd5b341561006757600080fd5b61006f610206565b6040518080602001828103825283818151815260200191508051906020019080838360005b838110156100af578082015181840152602081019050610094565b50505050905090810190601f1680156100dc5780820380516001836020036101000a031916815260200191505b509250505060405180910390f35b34156100f557600080fd5b6100fd6102a4565b6040518080602001828103825283818151815260200191508051906020019080838360005b8381101561013d578082015181840152602081019050610122565b50505050905090810190601f16801561016a5780820380516001836020036101000a031916815260200191505b509250505060405180910390f35b341561018357600080fd5b61018b610342565b6040518080602001828103825283818151815260200191508051906020019080838360005b838110156101cb5780820151818401526020810190506101b0565b50505050905090810190601f1680156101f85780820380516001836020036101000a031916815260200191505b509250505060405180910390f35b60008054600181600116156101000203166002900480601f01602080910402602001604051908101604052809291908181526020018280546001816001161561010002031660029004801561029c5780601f106102715761010080835404028352916020019161029c565b820191906000526020600020905b81548152906001019060200180831161027f57829003601f168201915b505050505081565b60018054600181600116156101000203166002900480601f01602080910402602001604051908101604052809291908181526020018280546001816001161561010002031660029004801561033a5780601f1061030f5761010080835404028352916020019161033a565b820191906000526020600020905b81548152906001019060200180831161031d57829003601f168201915b505050505081565b60028054600181600116156101000203166002900480601f0160208091040260200160405190810160405280929190818152602001828054600181600116156101000203166002900480156103d85780601f106103ad576101008083540402835291602001916103d8565b820191906000526020600020905b8154815290600101906020018083116103bb57829003601f168201915b5050505050815600a165627a7a723058200824c29372d0555443425821762f911f544d3e5fee05d921017a3880eac6be650029",
  "source": "pragma solidity ^0.4.19;\n\ncontract Badge {\n\n    bytes public name;\n    bytes public description;\n    bytes public ipfsHash;\n\n    function Badge(bytes badgeName, bytes badgeDescription, bytes ipfsIdentifier) public {\n        name = badgeName;\n        description = badgeDescription;\n        ipfsHash = ipfsIdentifier;\n    }\n\n}",
  "sourcePath": "/home/dennis/blockchain/hackathon/contracts/Badge.sol",
  "compiler": {
    "name": "solc",
    "version": "0.4.19+commit.c4cbbb05.Emscripten.clang"
  },
  "schemaVersion": "1.0.1",
  "updatedAt": "2018-04-06T17:12:56.231Z"
}