{
  "contractName": "Badge",
  "abi": [
    {
      "constant": true,
      "inputs": [],
      "name": "name",
      "outputs": [
        {
          "name": "",
          "type": "bytes32"
        }
      ],
      "payable": false,
      "stateMutability": "view",
      "type": "function"
    },
    {
      "constant": true,
      "inputs": [],
      "name": "url",
      "outputs": [
        {
          "name": "",
          "type": "bytes32"
        }
      ],
      "payable": false,
      "stateMutability": "view",
      "type": "function"
    },
    {
      "constant": true,
      "inputs": [],
      "name": "description",
      "outputs": [
        {
          "name": "",
          "type": "bytes32"
        }
      ],
      "payable": false,
      "stateMutability": "view",
      "type": "function"
    },
    {
      "inputs": [
        {
          "name": "badgeName",
          "type": "bytes32"
        },
        {
          "name": "badgeDescription",
          "type": "bytes32"
        },
        {
          "name": "ipfsUrl",
          "type": "bytes32"
        }
      ],
      "payable": false,
      "stateMutability": "nonpayable",
      "type": "constructor"
    },
    {
      "constant": true,
      "inputs": [],
      "name": "getName",
      "outputs": [
        {
          "name": "",
          "type": "bytes32"
        }
      ],
      "payable": false,
      "stateMutability": "view",
      "type": "function"
    },
    {
      "constant": true,
      "inputs": [],
      "name": "getDescription",
      "outputs": [
        {
          "name": "",
          "type": "bytes32"
        }
      ],
      "payable": false,
      "stateMutability": "view",
      "type": "function"
    },
    {
      "constant": true,
      "inputs": [],
      "name": "getUrl",
      "outputs": [
        {
          "name": "",
          "type": "bytes32"
        }
      ],
      "payable": false,
      "stateMutability": "view",
      "type": "function"
    }
  ],
  "bytecode": "0x6060604052341561000f57600080fd5b60405160608061026e833981016040528080519060200190919080519060200190919080519060200190919050508260008160001916905550816001816000191690555080600281600019169055505050506101fe806100706000396000f300606060405260043610610078576000357c0100000000000000000000000000000000000000000000000000000000900463ffffffff16806306fdde031461007d57806317d7de7c146100ae5780631a092541146100df5780635600f04f146101105780637284e41614610141578063d6bd872714610172575b600080fd5b341561008857600080fd5b6100906101a3565b60405180826000191660001916815260200191505060405180910390f35b34156100b957600080fd5b6100c16101a9565b60405180826000191660001916815260200191505060405180910390f35b34156100ea57600080fd5b6100f26101b2565b60405180826000191660001916815260200191505060405180910390f35b341561011b57600080fd5b6101236101bc565b60405180826000191660001916815260200191505060405180910390f35b341561014c57600080fd5b6101546101c2565b60405180826000191660001916815260200191505060405180910390f35b341561017d57600080fd5b6101856101c8565b60405180826000191660001916815260200191505060405180910390f35b60005481565b60008054905090565b6000600154905090565b60025481565b60015481565b60006002549050905600a165627a7a72305820f5d948368bea5e937d6f38bfc48174a615d4cfdb70428d89adcece7e08980dd30029",
  "source": "pragma solidity ^0.4.19;\n\ncontract Badge {\n\n    bytes32 public name;\n    bytes32 public description;\n    bytes32 public url;\n\n    function Badge(bytes32 badgeName, bytes32 badgeDescription, bytes32 ipfsUrl) public {\n        name = badgeName;\n        description = badgeDescription;\n        url = ipfsUrl;\n    }\n\n    function getName() public view returns (bytes32) {\n        return name;\n    }\n\n    function getDescription() public view returns (bytes32) {\n        return description;\n    }\n\n    function getUrl() public view returns (bytes32) {\n        return url;\n    }\n\n}",
  "sourcePath": "/home/dennis/blockchain/hackathon/contracts/Badge.sol",
  "compiler": {
    "name": "solc",
    "version": "0.4.19+commit.c4cbbb05.Emscripten.clang"
  },
  "schemaVersion": "1.0.1",
  "updatedAt": "2018-04-07T17:36:54.726Z"
}