{
  "contractName": "CreatedBadges",
  "abi": [
    {
      "anonymous": false,
      "inputs": [
        {
          "indexed": false,
          "name": "",
          "type": "string"
        },
        {
          "indexed": false,
          "name": "",
          "type": "address"
        },
        {
          "indexed": false,
          "name": "",
          "type": "string"
        },
        {
          "indexed": false,
          "name": "",
          "type": "string"
        },
        {
          "indexed": false,
          "name": "",
          "type": "string"
        }
      ],
      "name": "addedBadge",
      "type": "event"
    },
    {
      "anonymous": false,
      "inputs": [
        {
          "indexed": false,
          "name": "",
          "type": "string"
        },
        {
          "indexed": false,
          "name": "",
          "type": "uint256"
        }
      ],
      "name": "badgesCount",
      "type": "event"
    },
    {
      "anonymous": false,
      "inputs": [
        {
          "indexed": false,
          "name": "",
          "type": "string"
        }
      ],
      "name": "errorLog",
      "type": "event"
    },
    {
      "constant": false,
      "inputs": [
        {
          "name": "userKey",
          "type": "address"
        },
        {
          "name": "name",
          "type": "string"
        },
        {
          "name": "description",
          "type": "string"
        },
        {
          "name": "ipfsUrl",
          "type": "string"
        }
      ],
      "name": "addBadge",
      "outputs": [],
      "payable": false,
      "stateMutability": "nonpayable",
      "type": "function"
    },
    {
      "constant": true,
      "inputs": [
        {
          "name": "userKey",
          "type": "address"
        }
      ],
      "name": "getBadgesForIdentity",
      "outputs": [
        {
          "name": "",
          "type": "address[]"
        }
      ],
      "payable": false,
      "stateMutability": "view",
      "type": "function"
    },
    {
      "constant": false,
      "inputs": [],
      "name": "getAllBadges",
      "outputs": [
        {
          "name": "",
          "type": "address[]"
        }
      ],
      "payable": false,
      "stateMutability": "nonpayable",
      "type": "function"
    },
    {
      "constant": true,
      "inputs": [
        {
          "name": "key",
          "type": "address"
        }
      ],
      "name": "addressPresent",
      "outputs": [
        {
          "name": "",
          "type": "bool"
        }
      ],
      "payable": false,
      "stateMutability": "view",
      "type": "function"
    }
  ],
  "bytecode": "0x6060604052341561000f57600080fd5b6117b68061001e6000396000f300606060405260043610610062576000357c0100000000000000000000000000000000000000000000000000000000900463ffffffff16806333bf9dcd1461006757806349c02814146100f55780635d20db0014610146578063d012569114610248575b600080fd5b341561007257600080fd5b61009e600480803573ffffffffffffffffffffffffffffffffffffffff169060200190919050506102b2565b6040518080602001828103825283818151815260200191508051906020019060200280838360005b838110156100e15780820151818401526020810190506100c6565b505050509050019250505060405180910390f35b341561010057600080fd5b61012c600480803573ffffffffffffffffffffffffffffffffffffffff1690602001909190505061038d565b604051808215151515815260200191505060405180910390f35b341561015157600080fd5b610246600480803573ffffffffffffffffffffffffffffffffffffffff1690602001909190803590602001908201803590602001908080601f0160208091040260200160405190810160405280939291908181526020018383808284378201915050505050509190803590602001908201803590602001908080601f0160208091040260200160405190810160405280939291908181526020018383808284378201915050505050509190803590602001908201803590602001908080601f01602080910402602001604051908101604052809392919081815260200183838082843782019150505050505091905050610431565b005b341561025357600080fd5b61025b6108b9565b6040518080602001828103825283818151815260200191508051906020019060200280838360005b8381101561029e578082015181840152602081019050610283565b505050509050019250505060405180910390f35b6102ba610a86565b60008060008473ffffffffffffffffffffffffffffffffffffffff1673ffffffffffffffffffffffffffffffffffffffff16815260200190815260200160002090508060000180548060200260200160405190810160405280929190818152602001828054801561038057602002820191906000526020600020905b8160009054906101000a900473ffffffffffffffffffffffffffffffffffffffff1673ffffffffffffffffffffffffffffffffffffffff1681526020019060010190808311610336575b5050505050915050919050565b600080600090505b600180549050811015610426576001818154811015156103b157fe5b906000526020600020900160009054906101000a900473ffffffffffffffffffffffffffffffffffffffff1673ffffffffffffffffffffffffffffffffffffffff168373ffffffffffffffffffffffffffffffffffffffff161415610419576001915061042b565b8080600101915050610395565b600091505b50919050565b6000806000858585610441610a9a565b80806020018060200180602001848103845287818151815260200191508051906020019080838360005b8381101561048657808201518184015260208101905061046b565b50505050905090810190601f1680156104b35780820380516001836020036101000a031916815260200191505b50848103835286818151815260200191508051906020019080838360005b838110156104ec5780820151818401526020810190506104d1565b50505050905090810190601f1680156105195780820380516001836020036101000a031916815260200191505b50848103825285818151815260200191508051906020019080838360005b83811015610552578082015181840152602081019050610537565b50505050905090810190601f16801561057f5780820380516001836020036101000a031916815260200191505b509650505050505050604051809103906000f080151561059e57600080fd5b92508291506105ac8761038d565b151561061657600180548060010182816105c69190610aaa565b9160005260206000209001600089909190916101000a81548173ffffffffffffffffffffffffffffffffffffffff021916908373ffffffffffffffffffffffffffffffffffffffff160217905550505b6000808873ffffffffffffffffffffffffffffffffffffffff1673ffffffffffffffffffffffffffffffffffffffff168152602001908152602001600020905080600001805480600101828161066c9190610aaa565b9160005260206000209001600084909190916101000a81548173ffffffffffffffffffffffffffffffffffffffff021916908373ffffffffffffffffffffffffffffffffffffffff160217905550506002600081548092919060010191905055507f7440404d7d0b1a697b6a00c84820724af5a0460880ae4fd952a38056da8642ba8287878760405180806020018673ffffffffffffffffffffffffffffffffffffffff1673ffffffffffffffffffffffffffffffffffffffff168152602001806020018060200180602001858103855260108152602001807f4e65772062616467652061646465643a00000000000000000000000000000000815250602001858103845288818151815260200191508051906020019080838360005b838110156107a4578082015181840152602081019050610789565b50505050905090810190601f1680156107d15780820380516001836020036101000a031916815260200191505b50858103835287818151815260200191508051906020019080838360005b8381101561080a5780820151818401526020810190506107ef565b50505050905090810190601f1680156108375780820380516001836020036101000a031916815260200191505b50858103825286818151815260200191508051906020019080838360005b83811015610870578082015181840152602081019050610855565b50505050905090810190601f16801561089d5780820380516001836020036101000a031916815260200191505b509850505050505050505060405180910390a150505050505050565b6108c1610a86565b6108c9610a86565b6000806108d4610a86565b60006002546040518059106108e65750595b9080825280602002602001820160405250945060009350600092505b6001805490508310156109e45761095260018481548110151561092157fe5b906000526020600020900160009054906101000a900473ffffffffffffffffffffffffffffffffffffffff166102b2565b9150600090505b81518110156109d757818181518110151561097057fe5b90602001906020020151858580600101965081518110151561098e57fe5b9060200190602002019073ffffffffffffffffffffffffffffffffffffffff16908173ffffffffffffffffffffffffffffffffffffffff16815250508080600101915050610959565b8280600101935050610902565b7f989718e5a3770cae5a0e9886baa17c198fd1ed49d9b12f050766e528b460dffa85516040518080602001838152602001828103825260318152602001807f546f74616c206e756d626572206f662061646465642062616467657320666f7281526020017f20616c6c206964656e7469746965733a200000000000000000000000000000008152506040019250505060405180910390a1849550505050505090565b602060405190810160405280600081525090565b604051610c8f80610afc83390190565b815481835581811511610ad157818360005260206000209182019101610ad09190610ad6565b5b505050565b610af891905b80821115610af4576000816000905550600101610adc565b5090565b9056006060604052341561000f57600080fd5b604051610c8f380380610c8f83398101604052808051820191906020018051820191906020018051820191905050826000908051906020019061005392919061008a565b50816001908051906020019061006a92919061008a565b50806002908051906020019061008192919061008a565b5050505061012f565b828054600181600116156101000203166002900490600052602060002090601f016020900481019282601f106100cb57805160ff19168380011785556100f9565b828001600101855582156100f9579182015b828111156100f85782518255916020019190600101906100dd565b5b509050610106919061010a565b5090565b61012c91905b80821115610128576000816000905550600101610110565b5090565b90565b610b518061013e6000396000f300606060405260043610610083576000357c0100000000000000000000000000000000000000000000000000000000900463ffffffff16806306fdde031461008857806317d7de7c146101165780631a092541146101a45780635600f04f146102325780637284e416146102c0578063d6bd87271461034e578063ec0cfd0b146103dc575b600080fd5b341561009357600080fd5b61009b610542565b6040518080602001828103825283818151815260200191508051906020019080838360005b838110156100db5780820151818401526020810190506100c0565b50505050905090810190601f1680156101085780820380516001836020036101000a031916815260200191505b509250505060405180910390f35b341561012157600080fd5b6101296105e0565b6040518080602001828103825283818151815260200191508051906020019080838360005b8381101561016957808201518184015260208101905061014e565b50505050905090810190601f1680156101965780820380516001836020036101000a031916815260200191505b509250505060405180910390f35b34156101af57600080fd5b6101b7610688565b6040518080602001828103825283818151815260200191508051906020019080838360005b838110156101f75780820151818401526020810190506101dc565b50505050905090810190601f1680156102245780820380516001836020036101000a031916815260200191505b509250505060405180910390f35b341561023d57600080fd5b610245610730565b6040518080602001828103825283818151815260200191508051906020019080838360005b8381101561028557808201518184015260208101905061026a565b50505050905090810190601f1680156102b25780820380516001836020036101000a031916815260200191505b509250505060405180910390f35b34156102cb57600080fd5b6102d36107ce565b6040518080602001828103825283818151815260200191508051906020019080838360005b838110156103135780820151818401526020810190506102f8565b50505050905090810190601f1680156103405780820380516001836020036101000a031916815260200191505b509250505060405180910390f35b341561035957600080fd5b61036161086c565b6040518080602001828103825283818151815260200191508051906020019080838360005b838110156103a1578082015181840152602081019050610386565b50505050905090810190601f1680156103ce5780820380516001836020036101000a031916815260200191505b509250505060405180910390f35b34156103e757600080fd5b6103ef610914565b60405180806020018060200180602001848103845287818151815260200191508051906020019080838360005b8381101561043757808201518184015260208101905061041c565b50505050905090810190601f1680156104645780820380516001836020036101000a031916815260200191505b50848103835286818151815260200191508051906020019080838360005b8381101561049d578082015181840152602081019050610482565b50505050905090810190601f1680156104ca5780820380516001836020036101000a031916815260200191505b50848103825285818151815260200191508051906020019080838360005b838110156105035780820151818401526020810190506104e8565b50505050905090810190601f1680156105305780820380516001836020036101000a031916815260200191505b50965050505050505060405180910390f35b60008054600181600116156101000203166002900480601f0160208091040260200160405190810160405280929190818152602001828054600181600116156101000203166002900480156105d85780601f106105ad576101008083540402835291602001916105d8565b820191906000526020600020905b8154815290600101906020018083116105bb57829003601f168201915b505050505081565b6105e8610b11565b60008054600181600116156101000203166002900480601f01602080910402602001604051908101604052809291908181526020018280546001816001161561010002031660029004801561067e5780601f106106535761010080835404028352916020019161067e565b820191906000526020600020905b81548152906001019060200180831161066157829003601f168201915b5050505050905090565b610690610b11565b60018054600181600116156101000203166002900480601f0160208091040260200160405190810160405280929190818152602001828054600181600116156101000203166002900480156107265780601f106106fb57610100808354040283529160200191610726565b820191906000526020600020905b81548152906001019060200180831161070957829003601f168201915b5050505050905090565b60028054600181600116156101000203166002900480601f0160208091040260200160405190810160405280929190818152602001828054600181600116156101000203166002900480156107c65780601f1061079b576101008083540402835291602001916107c6565b820191906000526020600020905b8154815290600101906020018083116107a957829003601f168201915b505050505081565b60018054600181600116156101000203166002900480601f0160208091040260200160405190810160405280929190818152602001828054600181600116156101000203166002900480156108645780601f1061083957610100808354040283529160200191610864565b820191906000526020600020905b81548152906001019060200180831161084757829003601f168201915b505050505081565b610874610b11565b60028054600181600116156101000203166002900480601f01602080910402602001604051908101604052809291908181526020018280546001816001161561010002031660029004801561090a5780601f106108df5761010080835404028352916020019161090a565b820191906000526020600020905b8154815290600101906020018083116108ed57829003601f168201915b5050505050905090565b61091c610b11565b610924610b11565b61092c610b11565b600060016002828054600181600116156101000203166002900480601f0160208091040260200160405190810160405280929190818152602001828054600181600116156101000203166002900480156109c75780601f1061099c576101008083540402835291602001916109c7565b820191906000526020600020905b8154815290600101906020018083116109aa57829003601f168201915b50505050509250818054600181600116156101000203166002900480601f016020809104026020016040519081016040528092919081815260200182805460018160011615610100020316600290048015610a635780601f10610a3857610100808354040283529160200191610a63565b820191906000526020600020905b815481529060010190602001808311610a4657829003601f168201915b50505050509150808054600181600116156101000203166002900480601f016020809104026020016040519081016040528092919081815260200182805460018160011615610100020316600290048015610aff5780601f10610ad457610100808354040283529160200191610aff565b820191906000526020600020905b815481529060010190602001808311610ae257829003601f168201915b50505050509050925092509250909192565b6020604051908101604052806000815250905600a165627a7a723058209b1fd05722a4ceda159a12a9075b2b964e331e5501e16974b31578a98c65ed0a0029a165627a7a723058207f574846f7e39d365b4f6827276f0d2545271329f9f6aac7671815cc7fd0a6030029",
  "source": "pragma solidity ^0.4.18;\n\nimport \"./Badge.sol\";\n\ncontract CreatedBadges {\n    event addedBadge(string, address, string, string, string);\n    event badgesCount(string, uint);\n    event errorLog(string);\n\n    struct MyBadges {\n        address[] badgeKeys;\n    }\n    mapping (address => MyBadges) createdBadges;\n    address[] createdBadgeKeys;\n    uint256 totalBadges;\n\n    function addBadge(address userKey, string name, string description, string ipfsUrl) public {\n        Badge badge = new Badge(name, description, ipfsUrl);\n        address badgeAddress = address(badge);\n\n        if(!addressPresent(userKey)) {\n            createdBadgeKeys.push(userKey);\n        }\n        MyBadges storage myBadges = createdBadges[userKey];\n        myBadges.badgeKeys.push(badgeAddress);\n        totalBadges++;\n\n        addedBadge(\"New badge added:\", badgeAddress, name, description, ipfsUrl);\n    }\n\n    function getBadgesForIdentity(address userKey) public view returns (address[]) {\n        MyBadges storage myBadges = createdBadges[userKey];\n        return myBadges.badgeKeys;\n    }\n\n    function getAllBadges() public returns (address[]) {\n        address[] memory badges = new address[](totalBadges);\n        uint counter = 0;\n\n        for (uint index = 0; index < createdBadgeKeys.length; index++) {\n            address[] memory badgeList = getBadgesForIdentity(createdBadgeKeys[index]);\n\n            for (uint i = 0; i < badgeList.length; i++) {\n                badges[counter++] = badgeList[i];\n            }\n        }\n        badgesCount(\"Total number of added badges for all identities: \", badges.length);\n        return badges;\n    }\n\n    function addressPresent(address key) public view returns (bool) {\n        for (uint index = 0; index < createdBadgeKeys.length; index++) {\n            if (key == createdBadgeKeys[index]) {\n                return true;\n            }\n        }\n        return false;\n    }\n\n}",
  "sourcePath": "/home/dennis/blockchain/hackathon/contracts/CreatedBadges.sol",
  "compiler": {
    "name": "solc",
    "version": "0.4.19+commit.c4cbbb05.Emscripten.clang"
  },
  "schemaVersion": "1.0.1",
  "updatedAt": "2018-04-07T19:50:22.172Z"
}