{
  "contractName": "CreatedBadges",
  "abi": [
    {
      "constant": true,
      "inputs": [],
      "name": "getAllAddresses",
      "outputs": [
        {
          "name": "",
          "type": "address[]"
        }
      ],
      "payable": false,
      "stateMutability": "view",
      "type": "function"
    },
    {
      "constant": false,
      "inputs": [],
      "name": "getAllBadges",
      "outputs": [
        {
          "name": "",
          "type": "address[]"
        }
      ],
      "payable": false,
      "stateMutability": "nonpayable",
      "type": "function"
    },
    {
      "constant": true,
      "inputs": [
        {
          "name": "key",
          "type": "address"
        }
      ],
      "name": "getBadge",
      "outputs": [
        {
          "name": "",
          "type": "address"
        }
      ],
      "payable": false,
      "stateMutability": "view",
      "type": "function"
    },
    {
      "constant": false,
      "inputs": [
        {
          "name": "key",
          "type": "address"
        },
        {
          "name": "badgeName",
          "type": "bytes"
        },
        {
          "name": "badgeDescription",
          "type": "bytes"
        },
        {
          "name": "badgeIpfs",
          "type": "bytes"
        }
      ],
      "name": "addBadge",
      "outputs": [
        {
          "name": "",
          "type": "bool"
        }
      ],
      "payable": false,
      "stateMutability": "nonpayable",
      "type": "function"
    },
    {
      "constant": false,
      "inputs": [
        {
          "name": "key",
          "type": "address"
        }
      ],
      "name": "removeBadge",
      "outputs": [
        {
          "name": "result",
          "type": "bool"
        }
      ],
      "payable": false,
      "stateMutability": "nonpayable",
      "type": "function"
    }
  ],
  "bytecode": "0x6060604052341561000f57600080fd5b6117ba8061001e6000396000f30060606040526004361061006d576000357c0100000000000000000000000000000000000000000000000000000000900463ffffffff1680639516a10414610072578063c254de88146100dc578063cfffd51b14610155578063d01256911461026f578063fa01599a146102d9575b600080fd5b341561007d57600080fd5b61008561032a565b6040518080602001828103825283818151815260200191508051906020019060200280838360005b838110156100c85780820151818401526020810190506100ad565b505050509050019250505060405180910390f35b34156100e757600080fd5b610113600480803573ffffffffffffffffffffffffffffffffffffffff169060200190919050506103be565b604051808273ffffffffffffffffffffffffffffffffffffffff1673ffffffffffffffffffffffffffffffffffffffff16815260200191505060405180910390f35b341561016057600080fd5b610255600480803573ffffffffffffffffffffffffffffffffffffffff1690602001909190803590602001908201803590602001908080601f0160208091040260200160405190810160405280939291908181526020018383808284378201915050505050509190803590602001908201803590602001908080601f0160208091040260200160405190810160405280939291908181526020018383808284378201915050505050509190803590602001908201803590602001908080601f0160208091040260200160405190810160405280939291908181526020018383808284378201915050505050509190505061042a565b604051808215151515815260200191505060405180910390f35b341561027a57600080fd5b6102826108de565b6040518080602001828103825283818151815260200191508051906020019060200280838360005b838110156102c55780820151818401526020810190506102aa565b505050509050019250505060405180910390f35b34156102e457600080fd5b610310600480803573ffffffffffffffffffffffffffffffffffffffff16906020019091905050610a93565b604051808215151515815260200191505060405180910390f35b61033261118f565b60048054806020026020016040519081016040528092919081815260200182805480156103b457602002820191906000526020600020905b8160009054906101000a900473ffffffffffffffffffffffffffffffffffffffff1673ffffffffffffffffffffffffffffffffffffffff168152602001906001019080831161036a575b5050505050905090565b6000600360008373ffffffffffffffffffffffffffffffffffffffff1673ffffffffffffffffffffffffffffffffffffffff16815260200190815260200160002060020160009054906101000a900473ffffffffffffffffffffffffffffffffffffffff169050919050565b600080600085858561043a6111a3565b80806020018060200180602001848103845287818151815260200191508051906020019080838360005b8381101561047f578082015181840152602081019050610464565b50505050905090810190601f1680156104ac5780820380516001836020036101000a031916815260200191505b50848103835286818151815260200191508051906020019080838360005b838110156104e55780820151818401526020810190506104ca565b50505050905090810190601f1680156105125780820380516001836020036101000a031916815260200191505b50848103825285818151815260200191508051906020019080838360005b8381101561054b578082015181840152602081019050610530565b50505050905090810190601f1680156105785780820380516001836020036101000a031916815260200191505b509650505050505050604051809103906000f080151561059757600080fd5b9150600360008873ffffffffffffffffffffffffffffffffffffffff1673ffffffffffffffffffffffffffffffffffffffff1681526020019081526020016000209050600073ffffffffffffffffffffffffffffffffffffffff168160020160009054906101000a900473ffffffffffffffffffffffffffffffffffffffff1673ffffffffffffffffffffffffffffffffffffffff1614151561063d57600092506108d4565b818160020160006101000a81548173ffffffffffffffffffffffffffffffffffffffff021916908373ffffffffffffffffffffffffffffffffffffffff1602179055506004805480600101828161069491906111b3565b9160005260206000209001600089909190916101000a81548173ffffffffffffffffffffffffffffffffffffffff021916908373ffffffffffffffffffffffffffffffffffffffff160217905550506000805414156107745786600260006101000a81548173ffffffffffffffffffffffffffffffffffffffff021916908373ffffffffffffffffffffffffffffffffffffffff16021790555086600160006101000a81548173ffffffffffffffffffffffffffffffffffffffff021916908373ffffffffffffffffffffffffffffffffffffffff1602179055506108be565b8660036000600160009054906101000a900473ffffffffffffffffffffffffffffffffffffffff1673ffffffffffffffffffffffffffffffffffffffff1673ffffffffffffffffffffffffffffffffffffffff16815260200190815260200160002060010160006101000a81548173ffffffffffffffffffffffffffffffffffffffff021916908373ffffffffffffffffffffffffffffffffffffffff160217905550600160009054906101000a900473ffffffffffffffffffffffffffffffffffffffff168160000160006101000a81548173ffffffffffffffffffffffffffffffffffffffff021916908373ffffffffffffffffffffffffffffffffffffffff16021790555086600160006101000a81548173ffffffffffffffffffffffffffffffffffffffff021916908373ffffffffffffffffffffffffffffffffffffffff1602179055505b6000808154809291906001019190505550600192505b5050949350505050565b6108e66111df565b600080600090505b600480549050811015610a065781805480600101828161090e91906111f3565b916000526020600020900160006003600060048681548110151561092e57fe5b906000526020600020900160009054906101000a900473ffffffffffffffffffffffffffffffffffffffff1673ffffffffffffffffffffffffffffffffffffffff1673ffffffffffffffffffffffffffffffffffffffff16815260200190815260200160002060020160009054906101000a900473ffffffffffffffffffffffffffffffffffffffff16909190916101000a81548173ffffffffffffffffffffffffffffffffffffffff021916908373ffffffffffffffffffffffffffffffffffffffff1602179055505080806001019150506108ee565b81805480602002602001604051908101604052809291908181526020018280548015610a8757602002820191906000526020600020905b8160009054906101000a900473ffffffffffffffffffffffffffffffffffffffff1673ffffffffffffffffffffffffffffffffffffffff1681526020019060010190808311610a3d575b50505050509250505090565b6000806000806000600360008773ffffffffffffffffffffffffffffffffffffffff1673ffffffffffffffffffffffffffffffffffffffff1681526020019081526020016000209350600073ffffffffffffffffffffffffffffffffffffffff168460020160009054906101000a900473ffffffffffffffffffffffffffffffffffffffff1673ffffffffffffffffffffffffffffffffffffffff161415610b3e5760009450611186565b60016000541415610bd2576000600260006101000a81548173ffffffffffffffffffffffffffffffffffffffff021916908373ffffffffffffffffffffffffffffffffffffffff1602179055506000600160006101000a81548173ffffffffffffffffffffffffffffffffffffffff021916908373ffffffffffffffffffffffffffffffffffffffff160217905550610fed565b600160009054906101000a900473ffffffffffffffffffffffffffffffffffffffff1673ffffffffffffffffffffffffffffffffffffffff168673ffffffffffffffffffffffffffffffffffffffff161415610d36578360000160009054906101000a900473ffffffffffffffffffffffffffffffffffffffff16600160006101000a81548173ffffffffffffffffffffffffffffffffffffffff021916908373ffffffffffffffffffffffffffffffffffffffff160217905550600060036000600160009054906101000a900473ffffffffffffffffffffffffffffffffffffffff1673ffffffffffffffffffffffffffffffffffffffff1673ffffffffffffffffffffffffffffffffffffffff16815260200190815260200160002060010160006101000a81548173ffffffffffffffffffffffffffffffffffffffff021916908373ffffffffffffffffffffffffffffffffffffffff160217905550610fec565b600260009054906101000a900473ffffffffffffffffffffffffffffffffffffffff1673ffffffffffffffffffffffffffffffffffffffff168673ffffffffffffffffffffffffffffffffffffffff161415610e9a578360010160009054906101000a900473ffffffffffffffffffffffffffffffffffffffff16600260006101000a81548173ffffffffffffffffffffffffffffffffffffffff021916908373ffffffffffffffffffffffffffffffffffffffff160217905550600060036000600260009054906101000a900473ffffffffffffffffffffffffffffffffffffffff1673ffffffffffffffffffffffffffffffffffffffff1673ffffffffffffffffffffffffffffffffffffffff16815260200190815260200160002060000160006101000a81548173ffffffffffffffffffffffffffffffffffffffff021916908373ffffffffffffffffffffffffffffffffffffffff160217905550610feb565b8360000160009054906101000a900473ffffffffffffffffffffffffffffffffffffffff1692508360010160009054906101000a900473ffffffffffffffffffffffffffffffffffffffff16915081600360008573ffffffffffffffffffffffffffffffffffffffff1673ffffffffffffffffffffffffffffffffffffffff16815260200190815260200160002060010160006101000a81548173ffffffffffffffffffffffffffffffffffffffff021916908373ffffffffffffffffffffffffffffffffffffffff16021790555082600360008473ffffffffffffffffffffffffffffffffffffffff1673ffffffffffffffffffffffffffffffffffffffff16815260200190815260200160002060000160006101000a81548173ffffffffffffffffffffffffffffffffffffffff021916908373ffffffffffffffffffffffffffffffffffffffff1602179055505b5b5b600080815480929190600190039190505550600360008773ffffffffffffffffffffffffffffffffffffffff1673ffffffffffffffffffffffffffffffffffffffff168152602001908152602001600020600080820160006101000a81549073ffffffffffffffffffffffffffffffffffffffff02191690556001820160006101000a81549073ffffffffffffffffffffffffffffffffffffffff02191690556002820160006101000a81549073ffffffffffffffffffffffffffffffffffffffff02191690555050600090505b600480549050811015611181576004818154811015156110d757fe5b906000526020600020900160009054906101000a900473ffffffffffffffffffffffffffffffffffffffff1673ffffffffffffffffffffffffffffffffffffffff168673ffffffffffffffffffffffffffffffffffffffff1614156111745760048181548110151561114557fe5b906000526020600020900160006101000a81549073ffffffffffffffffffffffffffffffffffffffff02191690555b80806001019150506110bb565b600194505b50505050919050565b602060405190810160405280600081525090565b60405161054a8061124583390190565b8154818355818115116111da578183600052602060002091820191016111d9919061121f565b5b505050565b602060405190810160405280600081525090565b81548183558181151161121a57818360005260206000209182019101611219919061121f565b5b505050565b61124191905b8082111561123d576000816000905550600101611225565b5090565b9056006060604052341561000f57600080fd5b60405161054a38038061054a83398101604052808051820191906020018051820191906020018051820191905050826000908051906020019061005392919061008a565b50816001908051906020019061006a92919061008a565b50806002908051906020019061008192919061008a565b5050505061012f565b828054600181600116156101000203166002900490600052602060002090601f016020900481019282601f106100cb57805160ff19168380011785556100f9565b828001600101855582156100f9579182015b828111156100f85782518255916020019190600101906100dd565b5b509050610106919061010a565b5090565b61012c91905b80821115610128576000816000905550600101610110565b5090565b90565b61040c8061013e6000396000f300606060405260043610610057576000357c0100000000000000000000000000000000000000000000000000000000900463ffffffff16806306fdde031461005c5780637284e416146100ea578063c623674f14610178575b600080fd5b341561006757600080fd5b61006f610206565b6040518080602001828103825283818151815260200191508051906020019080838360005b838110156100af578082015181840152602081019050610094565b50505050905090810190601f1680156100dc5780820380516001836020036101000a031916815260200191505b509250505060405180910390f35b34156100f557600080fd5b6100fd6102a4565b6040518080602001828103825283818151815260200191508051906020019080838360005b8381101561013d578082015181840152602081019050610122565b50505050905090810190601f16801561016a5780820380516001836020036101000a031916815260200191505b509250505060405180910390f35b341561018357600080fd5b61018b610342565b6040518080602001828103825283818151815260200191508051906020019080838360005b838110156101cb5780820151818401526020810190506101b0565b50505050905090810190601f1680156101f85780820380516001836020036101000a031916815260200191505b509250505060405180910390f35b60008054600181600116156101000203166002900480601f01602080910402602001604051908101604052809291908181526020018280546001816001161561010002031660029004801561029c5780601f106102715761010080835404028352916020019161029c565b820191906000526020600020905b81548152906001019060200180831161027f57829003601f168201915b505050505081565b60018054600181600116156101000203166002900480601f01602080910402602001604051908101604052809291908181526020018280546001816001161561010002031660029004801561033a5780601f1061030f5761010080835404028352916020019161033a565b820191906000526020600020905b81548152906001019060200180831161031d57829003601f168201915b505050505081565b60028054600181600116156101000203166002900480601f0160208091040260200160405190810160405280929190818152602001828054600181600116156101000203166002900480156103d85780601f106103ad576101008083540402835291602001916103d8565b820191906000526020600020905b8154815290600101906020018083116103bb57829003601f168201915b5050505050815600a165627a7a723058200824c29372d0555443425821762f911f544d3e5fee05d921017a3880eac6be650029a165627a7a7230582064f8429c2fb043d936de5a57da49ef7c5ac7dad37ebfc30096e218e31bb281330029",
  "source": "pragma solidity ^0.4.19;\n\nimport \"./Badge.sol\";\n\ncontract CreatedBadges {\n\n    struct BadgeElement {\n        address previous;\n        address next;\n        Badge badge;\n    }\n    uint size;\n    address head;\n    address tail;\n    mapping (address => BadgeElement) badges;\n    address[] badgeAddresses;\n\n    function getAllAddresses() public view returns (address[]) {\n        return badgeAddresses;\n    }\n\n    function getAllBadges() public returns (Badge[]) {\n        Badge[] storage badgeList;\n\n        for(uint index = 0; index < badgeAddresses.length; index++) {\n            badgeList.push(badges[badgeAddresses[index]].badge);\n        }\n        return badgeList;\n    }\n\n    function getBadge(address key) public view returns (Badge) {\n        return badges[key].badge;\n    }\n\n    function addBadge(address key, bytes badgeName, bytes badgeDescription, bytes badgeIpfs) public returns (bool) {\n        Badge badge = new Badge(badgeName, badgeDescription, badgeIpfs);\n\n        BadgeElement storage badgeElement = badges[key];\n\n        if(badgeElement.badge != Badge(0x0)) {\n            return false;\n        }\n        badgeElement.badge = badge;\n        badgeAddresses.push(key);\n\n        if(size == 0){\n            tail = key;\n            head = key;\n        } else {\n            badges[head].next = key;\n            badgeElement.previous = head;\n            head = key;\n        }\n        size++;\n        return true;\n    }\n\n    function removeBadge(address key) public returns (bool result) {\n        BadgeElement storage badgeElement = badges[key];\n\n        if(badgeElement.badge == Badge(0x0)) {\n            return false;\n        }\n        if(size == 1) {\n            tail = 0x0;\n            head = 0x0;\n        } else if (key == head) {\n            head = badgeElement.previous;\n            badges[head].next = 0x0;\n        } else if(key == tail){\n            tail = badgeElement.next;\n            badges[tail].previous = 0x0;\n        } else {\n            address prevElem = badgeElement.previous;\n            address nextElem = badgeElement.next;\n            badges[prevElem].next = nextElem;\n            badges[nextElem].previous = prevElem;\n        }\n        size--;\n        delete badges[key];\n\n        for(uint index = 0; index < badgeAddresses.length; index++) {\n            if(key == badgeAddresses[index]) {\n                delete badgeAddresses[index];\n            }\n        }\n        return true;\n    }\n}",
  "sourcePath": "/home/dennis/blockchain/hackathon/contracts/CreatedBadges.sol",
  "compiler": {
    "name": "solc",
    "version": "0.4.19+commit.c4cbbb05.Emscripten.clang"
  },
  "schemaVersion": "1.0.1",
  "updatedAt": "2018-04-06T17:12:56.240Z"
}