{
  "contractName": "CreatedBadges",
  "abi": [
    {
      "anonymous": false,
      "inputs": [
        {
          "indexed": false,
          "name": "",
          "type": "string"
        },
        {
          "indexed": false,
          "name": "",
          "type": "address"
        },
        {
          "indexed": false,
          "name": "",
          "type": "string"
        },
        {
          "indexed": false,
          "name": "",
          "type": "string"
        },
        {
          "indexed": false,
          "name": "",
          "type": "string"
        }
      ],
      "name": "addedBadge",
      "type": "event"
    },
    {
      "anonymous": false,
      "inputs": [
        {
          "indexed": false,
          "name": "",
          "type": "string"
        },
        {
          "indexed": false,
          "name": "",
          "type": "uint256"
        }
      ],
      "name": "badgesCount",
      "type": "event"
    },
    {
      "anonymous": false,
      "inputs": [
        {
          "indexed": false,
          "name": "",
          "type": "string"
        }
      ],
      "name": "errorLog",
      "type": "event"
    },
    {
      "constant": false,
      "inputs": [
        {
          "name": "userKey",
          "type": "address"
        },
        {
          "name": "name",
          "type": "bytes32"
        },
        {
          "name": "description",
          "type": "bytes32"
        },
        {
          "name": "ipfsUrl",
          "type": "bytes32"
        }
      ],
      "name": "addBadge",
      "outputs": [],
      "payable": false,
      "stateMutability": "nonpayable",
      "type": "function"
    },
    {
      "constant": false,
      "inputs": [
        {
          "name": "userKey",
          "type": "address"
        }
      ],
      "name": "getBadgesForIdentity",
      "outputs": [
        {
          "name": "",
          "type": "address[]"
        }
      ],
      "payable": false,
      "stateMutability": "nonpayable",
      "type": "function"
    },
    {
      "constant": false,
      "inputs": [],
      "name": "getAllBadges",
      "outputs": [
        {
          "name": "",
          "type": "address[]"
        }
      ],
      "payable": false,
      "stateMutability": "nonpayable",
      "type": "function"
    },
    {
      "constant": true,
      "inputs": [
        {
          "name": "key",
          "type": "address"
        }
      ],
      "name": "addressPresent",
      "outputs": [
        {
          "name": "",
          "type": "bool"
        }
      ],
      "payable": false,
      "stateMutability": "view",
      "type": "function"
    },
    {
      "constant": true,
      "inputs": [
        {
          "name": "_bytes32",
          "type": "bytes32"
        }
      ],
      "name": "toString",
      "outputs": [
        {
          "name": "",
          "type": "string"
        }
      ],
      "payable": false,
      "stateMutability": "pure",
      "type": "function"
    }
  ],
  "bytecode": "0x6060604052341561000f57600080fd5b610fd18061001e6000396000f30060606040526004361061006d576000357c0100000000000000000000000000000000000000000000000000000000900463ffffffff16806333bf9dcd1461007257806349c0281414610100578063a8dfeba314610151578063b11a19e8146101b1578063d012569114610251575b600080fd5b341561007d57600080fd5b6100a9600480803573ffffffffffffffffffffffffffffffffffffffff169060200190919050506102bb565b6040518080602001828103825283818151815260200191508051906020019060200280838360005b838110156100ec5780820151818401526020810190506100d1565b505050509050019250505060405180910390f35b341561010b57600080fd5b610137600480803573ffffffffffffffffffffffffffffffffffffffff1690602001909190505061044b565b604051808215151515815260200191505060405180910390f35b341561015c57600080fd5b6101af600480803573ffffffffffffffffffffffffffffffffffffffff169060200190919080356000191690602001909190803560001916906020019091908035600019169060200190919050506104ef565b005b34156101bc57600080fd5b6101d6600480803560001916906020019091905050610a0d565b6040518080602001828103825283818151815260200191508051906020019080838360005b838110156102165780820151818401526020810190506101fb565b50505050905090810190601f1680156102435780820380516001836020036101000a031916815260200191505b509250505060405180910390f35b341561025c57600080fd5b610264610ad9565b6040518080602001828103825283818151815260200191508051906020019060200280838360005b838110156102a757808201518184015260208101905061028c565b505050509050019250505060405180910390f35b6102c3610c9a565b60006102cd610c9a565b60008060008673ffffffffffffffffffffffffffffffffffffffff1673ffffffffffffffffffffffffffffffffffffffff168152602001908152602001600020925082600101805490506040518059106103245750595b90808252806020026020018201604052509150600090505b826001018054905081101561044057826000016000846001018381548110151561036257fe5b906000526020600020900160009054906101000a900473ffffffffffffffffffffffffffffffffffffffff1673ffffffffffffffffffffffffffffffffffffffff1673ffffffffffffffffffffffffffffffffffffffff16815260200190815260200160002060009054906101000a900473ffffffffffffffffffffffffffffffffffffffff1682828151811015156103f757fe5b9060200190602002019073ffffffffffffffffffffffffffffffffffffffff16908173ffffffffffffffffffffffffffffffffffffffff1681525050808060010191505061033c565b819350505050919050565b600080600090505b6001805490508110156104e45760018181548110151561046f57fe5b906000526020600020900160009054906101000a900473ffffffffffffffffffffffffffffffffffffffff1673ffffffffffffffffffffffffffffffffffffffff168373ffffffffffffffffffffffffffffffffffffffff1614156104d757600191506104e9565b8080600101915050610453565b600091505b50919050565b6000806000808773ffffffffffffffffffffffffffffffffffffffff161415801561052257506000600102866000191614155b801561053657506000600102856000191614155b801561054a57506000600102846000191614155b1561094f5785858561055a610cae565b808460001916600019168152602001836000191660001916815260200182600019166000191681526020019350505050604051809103906000f08015156105a057600080fd5b92508291506105ae8761044b565b151561061857600180548060010182816105c89190610cbe565b9160005260206000209001600089909190916101000a81548173ffffffffffffffffffffffffffffffffffffffff021916908373ffffffffffffffffffffffffffffffffffffffff160217905550505b6000808873ffffffffffffffffffffffffffffffffffffffff1673ffffffffffffffffffffffffffffffffffffffff1681526020019081526020016000209050828160000160008473ffffffffffffffffffffffffffffffffffffffff1673ffffffffffffffffffffffffffffffffffffffff16815260200190815260200160002060006101000a81548173ffffffffffffffffffffffffffffffffffffffff021916908373ffffffffffffffffffffffffffffffffffffffff1602179055508060010180548060010182816106ee9190610cbe565b9160005260206000209001600089909190916101000a81548173ffffffffffffffffffffffffffffffffffffffff021916908373ffffffffffffffffffffffffffffffffffffffff160217905550506002600081548092919060010191905055507f7440404d7d0b1a697b6a00c84820724af5a0460880ae4fd952a38056da8642ba8261077a88610a0d565b61078388610a0d565b61078c88610a0d565b60405180806020018673ffffffffffffffffffffffffffffffffffffffff1673ffffffffffffffffffffffffffffffffffffffff168152602001806020018060200180602001858103855260108152602001807f4e65772062616467652061646465643a00000000000000000000000000000000815250602001858103845288818151815260200191508051906020019080838360005b8381101561083e578082015181840152602081019050610823565b50505050905090810190601f16801561086b5780820380516001836020036101000a031916815260200191505b50858103835287818151815260200191508051906020019080838360005b838110156108a4578082015181840152602081019050610889565b50505050905090810190601f1680156108d15780820380516001836020036101000a031916815260200191505b50858103825286818151815260200191508051906020019080838360005b8381101561090a5780820151818401526020810190506108ef565b50505050905090810190601f1680156109375780820380516001836020036101000a031916815260200191505b509850505050505050505060405180910390a1610a04565b7fdf8dca245d7ff96a83e9b8205a2ad0be04df6e3bbda74669314fdc76657f0e826040518080602001828103825260428152602001807f4e6f2062616467652061646465643a20616464726573732c206e616d652c206481526020017f65736372697074696f6e206f72206970667348617368206973206d697373696e81526020017f672100000000000000000000000000000000000000000000000000000000000081525060600191505060405180910390a15b50505050505050565b610a15610cea565b610a1d610cfe565b60006020604051805910610a2e5750595b9080825280601f01601f19166020018201604052509150600090505b6020811015610acf578381602081101515610a6157fe5b1a7f0100000000000000000000000000000000000000000000000000000000000000028282815181101515610a9257fe5b9060200101907effffffffffffffffffffffffffffffffffffffffffffffffffffffffffffff1916908160001a9053508080600101915050610a4a565b8192505050919050565b610ae1610c9a565b610ae9610c9a565b6000610af3610c9a565b6000600254604051805910610b055750595b90808252806020026020018201604052509350600092505b600180549050831015610bf957610b6d600184815481101515610b3c57fe5b906000526020600020900160009054906101000a900473ffffffffffffffffffffffffffffffffffffffff166102bb565b9150600090505b8151811015610bec578183815181101515610b8b57fe5b906020019060200201518482815181101515610ba357fe5b9060200190602002019073ffffffffffffffffffffffffffffffffffffffff16908173ffffffffffffffffffffffffffffffffffffffff16815250508080600101915050610b74565b8280600101935050610b1d565b7f989718e5a3770cae5a0e9886baa17c198fd1ed49d9b12f050766e528b460dffa84516040518080602001838152602001828103825260318152602001807f546f74616c206e756d626572206f662061646465642062616467657320666f7281526020017f20616c6c206964656e7469746965733a200000000000000000000000000000008152506040019250505060405180910390a18394505050505090565b602060405190810160405280600081525090565b60405161026e80610d3883390190565b815481835581811511610ce557818360005260206000209182019101610ce49190610d12565b5b505050565b602060405190810160405280600081525090565b602060405190810160405280600081525090565b610d3491905b80821115610d30576000816000905550600101610d18565b5090565b9056006060604052341561000f57600080fd5b60405160608061026e833981016040528080519060200190919080519060200190919080519060200190919050508260008160001916905550816001816000191690555080600281600019169055505050506101fe806100706000396000f300606060405260043610610078576000357c0100000000000000000000000000000000000000000000000000000000900463ffffffff16806306fdde031461007d57806317d7de7c146100ae5780631a092541146100df5780635600f04f146101105780637284e41614610141578063d6bd872714610172575b600080fd5b341561008857600080fd5b6100906101a3565b60405180826000191660001916815260200191505060405180910390f35b34156100b957600080fd5b6100c16101a9565b60405180826000191660001916815260200191505060405180910390f35b34156100ea57600080fd5b6100f26101b2565b60405180826000191660001916815260200191505060405180910390f35b341561011b57600080fd5b6101236101bc565b60405180826000191660001916815260200191505060405180910390f35b341561014c57600080fd5b6101546101c2565b60405180826000191660001916815260200191505060405180910390f35b341561017d57600080fd5b6101856101c8565b60405180826000191660001916815260200191505060405180910390f35b60005481565b60008054905090565b6000600154905090565b60025481565b60015481565b60006002549050905600a165627a7a72305820f5d948368bea5e937d6f38bfc48174a615d4cfdb70428d89adcece7e08980dd30029a165627a7a723058200739872d9080f9c808fc412201cfd39db294946bada18880d069c3a7a7b90bff0029",
  "source": "pragma solidity ^0.4.19;\n\nimport \"./Badge.sol\";\n\ncontract CreatedBadges {\n    event addedBadge(string, address, string, string, string);\n    event badgesCount(string, uint);\n    event errorLog(string);\n\n    struct MyBadges {\n        mapping(address => Badge) badges;\n        address[] badgeKeys;\n    }\n    mapping (address => MyBadges) createdBadges;\n    address[] createdBadgeKeys;\n    uint256 totalBadges;\n\n    function addBadge(address userKey, bytes32 name, bytes32 description, bytes32 ipfsUrl) public {\n        if(userKey != 0x0 && name != 0 && description != 0 && ipfsUrl != 0) {\n            Badge badge = new Badge(name, description, ipfsUrl);\n            address badgeAddress = address(badge);\n\n            if(!addressPresent(userKey)) {\n                createdBadgeKeys.push(userKey);\n            }\n            MyBadges storage myBadges = createdBadges[userKey];\n            myBadges.badges[badgeAddress] = badge;\n            myBadges.badgeKeys.push(userKey);\n            totalBadges++;\n\n            addedBadge(\"New badge added:\", badgeAddress, toString(name), toString(description), toString(ipfsUrl));\n        } else {\n            errorLog(\"No badge added: address, name, description or ipfsHash is missing!\");\n        }\n    }\n\n    function getBadgesForIdentity(address userKey) public returns (Badge[]) {\n        MyBadges storage myBadges = createdBadges[userKey];\n        Badge[] memory badges = new Badge[](myBadges.badgeKeys.length);\n\n        //emit badgesCount(\"Number of added badges for this identity: \", badges.length);\n\n        for(uint index = 0; index < myBadges.badgeKeys.length; index++) {\n            badges[index] = myBadges.badges[myBadges.badgeKeys[index]];\n        }\n        return badges;\n    }\n\n    function getAllBadges() public returns (Badge[]) {\n        Badge[] memory badges = new Badge[](totalBadges);\n\n        for(uint index = 0; index < createdBadgeKeys.length; index++) {\n            Badge[] memory badgeList = getBadgesForIdentity(createdBadgeKeys[index]);\n\n            for(uint i = 0; i < badgeList.length; i++) {\n                badges[i] = badgeList[index];\n            }\n        }\n        badgesCount(\"Total number of added badges for all identities: \", badges.length);\n        return badges;\n    }\n\n    function addressPresent(address key) public view returns (bool) {\n        for(uint index = 0; index < createdBadgeKeys.length; index++) {\n            if(key == createdBadgeKeys[index]) {\n                return true;\n            }\n        }\n        return false;\n    }\n\n    function toString(bytes32 _bytes32) public pure returns (string) {\n        bytes memory bytesArray = new bytes(32);\n\n        for (uint256 i = 0; i < 32; i++) {\n            bytesArray[i] = _bytes32[i];\n        }\n        return string(bytesArray);\n    }\n\n}",
  "sourcePath": "/home/dennis/blockchain/hackathon/contracts/CreatedBadges.sol",
  "compiler": {
    "name": "solc",
    "version": "0.4.19+commit.c4cbbb05.Emscripten.clang"
  },
  "schemaVersion": "1.0.1",
  "updatedAt": "2018-04-07T17:36:54.728Z"
}