{
  "contractName": "Profile",
  "abi": [
    {
      "inputs": [
        {
          "name": "ID",
          "type": "bytes"
        },
        {
          "name": "obType",
          "type": "bytes32"
        },
        {
          "name": "profileName",
          "type": "bytes"
        }
      ],
      "payable": false,
      "stateMutability": "nonpayable",
      "type": "constructor"
    },
    {
      "constant": true,
      "inputs": [],
      "name": "getOwner",
      "outputs": [
        {
          "name": "",
          "type": "address"
        }
      ],
      "payable": false,
      "stateMutability": "view",
      "type": "function"
    },
    {
      "constant": true,
      "inputs": [],
      "name": "getId",
      "outputs": [
        {
          "name": "",
          "type": "bytes"
        }
      ],
      "payable": false,
      "stateMutability": "view",
      "type": "function"
    },
    {
      "constant": true,
      "inputs": [],
      "name": "getTypeOB",
      "outputs": [
        {
          "name": "",
          "type": "bytes32"
        }
      ],
      "payable": false,
      "stateMutability": "view",
      "type": "function"
    },
    {
      "constant": true,
      "inputs": [],
      "name": "getContext",
      "outputs": [
        {
          "name": "",
          "type": "bytes32"
        }
      ],
      "payable": false,
      "stateMutability": "view",
      "type": "function"
    },
    {
      "constant": true,
      "inputs": [],
      "name": "getName",
      "outputs": [
        {
          "name": "",
          "type": "bytes"
        }
      ],
      "payable": false,
      "stateMutability": "view",
      "type": "function"
    }
  ],
  "bytecode": "0x6060604052341561000f57600080fd5b6040516105af3803806105af83398101604052808051820191906020018051906020019091908051820191905050336000806101000a81548173ffffffffffffffffffffffffffffffffffffffff021916908373ffffffffffffffffffffffffffffffffffffffff16021790555082600190805190602001906100939291906100e9565b5081600281600019169055507f68747470733a2f2f773369642e6f72672f6f70656e6261646765732f763200006003816000191690555080600490805190602001906100e09291906100e9565b5050505061018e565b828054600181600116156101000203166002900490600052602060002090601f016020900481019282601f1061012a57805160ff1916838001178555610158565b82800160010185558215610158579182015b8281111561015757825182559160200191906001019061013c565b5b5090506101659190610169565b5090565b61018b91905b8082111561018757600081600090555060010161016f565b5090565b90565b6104128061019d6000396000f30060606040526004361061006d576000357c0100000000000000000000000000000000000000000000000000000000900463ffffffff168063127f0f071461007257806317d7de7c146100a35780635d1ca63114610131578063893d20e8146101bf578063fe04fd3d14610214575b600080fd5b341561007d57600080fd5b610085610245565b60405180826000191660001916815260200191505060405180910390f35b34156100ae57600080fd5b6100b661024f565b6040518080602001828103825283818151815260200191508051906020019080838360005b838110156100f65780820151818401526020810190506100db565b50505050905090810190601f1680156101235780820380516001836020036101000a031916815260200191505b509250505060405180910390f35b341561013c57600080fd5b6101446102f7565b6040518080602001828103825283818151815260200191508051906020019080838360005b83811015610184578082015181840152602081019050610169565b50505050905090810190601f1680156101b15780820380516001836020036101000a031916815260200191505b509250505060405180910390f35b34156101ca57600080fd5b6101d261039f565b604051808273ffffffffffffffffffffffffffffffffffffffff1673ffffffffffffffffffffffffffffffffffffffff16815260200191505060405180910390f35b341561021f57600080fd5b6102276103c8565b60405180826000191660001916815260200191505060405180910390f35b6000600354905090565b6102576103d2565b60048054600181600116156101000203166002900480601f0160208091040260200160405190810160405280929190818152602001828054600181600116156101000203166002900480156102ed5780601f106102c2576101008083540402835291602001916102ed565b820191906000526020600020905b8154815290600101906020018083116102d057829003601f168201915b5050505050905090565b6102ff6103d2565b60018054600181600116156101000203166002900480601f0160208091040260200160405190810160405280929190818152602001828054600181600116156101000203166002900480156103955780601f1061036a57610100808354040283529160200191610395565b820191906000526020600020905b81548152906001019060200180831161037857829003601f168201915b5050505050905090565b60008060009054906101000a900473ffffffffffffffffffffffffffffffffffffffff16905090565b6000600254905090565b6020604051908101604052806000815250905600a165627a7a72305820ca6e384a632589149d1d2305263c8e5074966b7038e8ff89f460947515393e3e0029",
  "source": "pragma solidity ^0.4.18;\n\ncontract Profile {\n    address private owner;\n    bytes private id;\n    bytes32 private typeOB;\n    bytes32 private context;\n    bytes private name;\n\n    function Profile(bytes ID, bytes32 obType, bytes profileName) public {\n        owner = msg.sender;\n        id = ID;\n        typeOB = obType;\n        context = \"https://w3id.org/openbadges/v2\";\n        name = profileName;\n    }\n\n    function getOwner() public view returns (address) {\n        return owner;\n    }\n\n    function getId() public view returns (bytes) {\n        return id;\n    }\n\n    function getTypeOB() public view returns (bytes32) {\n        return typeOB;\n    }\n\n    function getContext() public view returns (bytes32) {\n        return context;\n    }\n\n    function getName() public view returns (bytes) {\n        return name;\n    }\n\n}",
  "sourcePath": "/home/dennis/blockchain/hackathon/contracts/Profile.sol",
  "compiler": {
    "name": "solc",
    "version": "0.4.19+commit.c4cbbb05.Emscripten.clang"
  },
  "schemaVersion": "1.0.1",
  "updatedAt": "2018-04-06T12:46:32.287Z"
}